:020000040800F2
:1000000000000220A1340008F51B0008F71B0008BF
:10001000F91B0008FB1B0008FD1B00080000000086
:10002000000000000000000000000000FF1B0008AE
:10003000011C000800000000031C0008051C00084B
:10004000F1340008F1340008F1340008F1340008FC
:10005000F1340008F1340008F1340008F1340008EC
:10006000F1340008F1340008F1340008F1340008DC
:10007000F1340008F1340008F1340008F1340008CC
:10008000F1340008F1340008F1340008F1340008BC
:10009000F1340008F1340008F1340008F1340008AC
:1000A000F1340008F1340008F1340008F13400089C
:1000B000F1340008F1340008F1340008F13400088C
:1000C000F1340008F1340008F1340008F13400087C
:1000D000F1340008F13400080D1C0008F134000868
:1000E000F1340008F1340008F1340008F13400085C
:1000F000F1340008F1340008F1340008F13400084C
:10010000F1340008F1340008F1340008F13400083B
:10011000F1340008F1340008F1340008F13400082B
:10012000F1340008F1340008F1340008F13400081B
:10013000F1340008F1340008F1340008F13400080B
:10014000F1340008F1340008F1340008F1340008FB
:10015000F1340008F1340008F1340008F1340008EB
:10016000F1340008F1340008F1340008F1340008DB
:10017000F1340008F1340008F134000800000000F8
:08018000F1340008F13400081D
:1001C0000348044B834202D0034B03B118477047E6
:1001D0005C0000205C000020000000000548064B89
:1001E0001B1AD90F01EBA301491002D0034B03B135
:1001F000184770475C0000205C00002000000000F1
:1002000010B5064C237843B9FFF7DAFF044B13B15E
:100210000448AFF300800123237010BD5C00002070
:1002200000000000F434000808B5044B1BB1044979
:100230000448AFF30080BDE80840CFE700000000AD
:1002400060000020F434000870B50F4B0F4DAB4236
:10025000A3EB050607D0B610002455F8043B013483
:100260009847A642F9D803F045F9094D094B5E1BA2
:10027000AB424FEAA60606D0002455F8043B0134F1
:100280009847A642F9D870BDB8360008B8360008BD
:10029000B8360008BC36000800000000000000006E
:1002A000000000000000000000000000000000004E
:1002B000000000000000000000000000000000003E
:1002C00030B490F800F020F007016FF0000C10F04F
:1002D000070491F820F040F048804FF000046FF0E0
:1002E0000700D1E9002391F840F000F1080082FAFC
:1002F0004CF2A4FA8CF283FA4CF3A2FA8CF34BBBC7
:10030000D1E9022382FA4CF200F10800A4FA8CF23F
:1003100083FA4CF3A2FA8CF3E3B9D1E9042382FA0D
:100320004CF200F10800A4FA8CF283FA4CF3A2FA22
:100330008CF37BB9D1E9062301F1200182FA4CF25A
:1003400000F10800A4FA8CF283FA4CF3A2FA8CF3C1
:10035000002BC6D0002A04BF04301A4612BAB2FAE3
:1003600082F200EBD20030BC7047D1E9002304F0E8
:100370000305C4F100004FEAC50514F0040F91F81D
:1003800040F00CFA05F562EA05021CBF63EA0503BA
:1003900062464FF00004AAE7830730B547D0541EE9
:1003A000002A3ED0CAB2034601E0013C39D303F82B
:1003B000012B9D07F9D1032C2CD9CDB205EB0525D6
:1003C0000F2C05EB054535D9A4F1100222F00F0CD6
:1003D00003F1100EE6444FEA121C1A46C2E900551A
:1003E000C2E9025510327245F8D10CF1010214F045
:1003F0000C0F03EB021204F00F0C13D0ACF104034A
:1004000023F003030433134442F8045B9342FBD10B
:100410000CF003042CB1C9B21C4403F8011BA34225
:10042000FBD130BD64461346002CF4D1F9E70346F6
:100430001446C0E71A46A446E0E700BF0A2200219E
:1004400000F0AEB80A23002200F09CB8242B2DE95E
:10045000F84F43D8012B41D0804649481F468E466D
:1004600075461EF801BB10F80B4014F00804F7D1D4
:10047000BBF12D0F6FD0BBF12B0F08BF9EF800B062
:100480006FF0004908BF05F1020E73BBBBF1300FDE
:100490004BD00A273B460025B9FBF7F6284607FB59
:1004A000169A05E03AD007FB00C001251EF801BBF3
:1004B000ABF1300CBCF1090F06D9ABF1410CBCF12A
:1004C000190F19D8ABF1370C63451EDDB5F1FF3FAD
:1004D000ECD08642E6D24FF0FF35E7E700F0F6FABF
:1004E000162303600020BDE8F88F102BD3D1BBF199
:1004F000300F23D01F46CEE7ABF1610CBCF1190FD2
:1005000003D8ABF1570C6345E0DC6B1C2BD054B91E
:10051000002AE8D085BB1160BDE8F88FE245C2DA59
:100520004FF0FF35C2E74042F2E79EF8003003F09B
:10053000DF03582B08D008273B46ACE79EF80000A5
:1005400000F0DF005828D5D110279EF801B03B46B7
:100550000EF1020E9FE79EF800B04FF0004905F142
:10056000020E012491E72223C8F8003032B10EF1C7
:10057000FF3148461160CFE78146F8E74846B2E7C9
:100580000D35000862E700BF10B4044C84461346E2
:1005900020685DF8044B0A46614657E700000020DA
:1005A00010B4044C8446134620685DF8044B0A4698
:1005B00061464BE70000002008B410B5002A9DB04A
:1005C000044636DB4FF40273ADF814304FF00003ED
:1005D0001B930291069120AB17D0013A4FF6FF71A1
:1005E00004920792ADF816101F9A019302A900F029
:1005F00051F9421C01DA8B232360029B00221A70FE
:100600001DB0BDE8104001B070474FF6FF71049275
:100610000792ADF816101F9A019302A900F03AF95B
:10062000431C01DA8B2323601DB0BDE8104001B0EC
:1006300070478B2303604FF0FF30F5E70CB410B523
:10064000214B00291C689CB038DB4FF000034FF4AD
:1006500002721B93ADF81420029006901FAB18D0C5
:1006600001394FF6FF7204910791ADF8162002A9E7
:100670001E9A0193204600F00DF9421C01DA8B23EB
:100680002360029B00221A701CB0BDE8104002B02B
:1006900070474FF6FF7204910791ADF8162002A93A
:1006A0001E9A0193204600F0F5F8431C01DA8B23D3
:1006B00023601CB0BDE8104002B070478B2323605C
:1006C0004FF0FF30F5E700BF000000202DE9F047B4
:1006D0008F681D46AF420B680C46164636D8B1F9F6
:1006E0000CC01CF4906F0ED13D46184631462A4688
:1006F00000F0F4FAA368DF1B2368A7602B440020F6
:100700002360BDE8F0874A69096902EB42025F1A7B
:1007100002EBD2726B1C52103B44934292BF914643
:1007200099461A461CF4806F804611D0114600F09D
:10073000F7F9824600B321693A4600F0A1FBA3898C
:1007400023F4906343F08003A38105E02F46CCE7B8
:1007500000F030FC824658B10AEB0703A9EB07070B
:10076000A760C4F810A0C4F8149023602F46BCE71B
:100770002169404600F054FAA3890C2243F040035B
:10078000C8F800204FF0FF30A381BAE72DE9F04F01
:100790009368176883B09246002B74D04FF0000B1B
:1007A0008B680A6881460C465D4645E0B4F90C301A
:1007B00013F4906F2CD0D4E90401161A01EB410216
:1007C00002EBD272711C52102944914292BF9046A2
:1007D00088460A465B0539D51146484600F0A0F91F
:1007E000019000283DD03246216900F049FBA289E2
:1007F000019B22F4906242F08002A2819819A8EB3A
:100800000606A660C4F8148023612060A8462E4620
:100810003246594600F062FADAF80810A3682268F6
:10082000A3EB08033244491BA3602260CAF80810F6
:1008300049B3D7E900B5083798461046002DF8D0DF
:100840009D421E46B2D2A8462E46E1E701464846E2
:1008500000F0B0FB03460028D0D12169484600F0E3
:10086000DFF9A3890C2243F04003C9F800204FF0C0
:10087000FF30A38100220023CAF80820CAF8043000
:1008800003B0BDE8F08F00200023CAF8043003B0A5
:10089000BDE8F08F2DE9F04F1C468B891D069DB0F9
:1008A00088468146934603D50B69002B00F0F18002
:1008B0000023099343F22003ADF829309BF8003060
:1008C0007D4D03940126002B73D0DA4603E01AF81D
:1008D000013F002B75D0252BF9D1BAEB0B0473D156
:1008E0009AF80020002A64D000234FF0FF32CDE9AF
:1008F00005230AF1010A049307938DF853301A93E4
:1009000005E0049A06FA03F31A430492A2465446F9
:10091000052214F8011B284600F062FAA346431B87
:100920000028EED1049BD80644BF20228DF8532026
:1009300019079AF8001044BF2B228DF853202A295A
:1009400050D1039A11680432002903927CDB07918D
:100950009AF801102E295BD0584C0322204600F053
:100960003FFA38B1049B001B4022824013430BF135
:10097000010B04931BF8011B51488DF82810062227
:1009800000F02EFA002865D04E4B002B55D003AA5C
:1009900000924D4B424604A94846AFF300800746FB
:1009A0007A1C06D0099B3B4409939BF80030002B2E
:1009B0008BD1B8F80C305B067AD409981DB0BDE82D
:1009C000F08FBAEB0B04F4D023465A464146484612
:1009D000FFF77CFE0130ECD0099B9AF800202344FD
:1009E00009937FE7A1F13002092A88BFD346B1D825
:1009F000079B00E00134217803EB830302EB430300
:100A0000A1F13002092AF5D92E290793A346A3D1D3
:100A10009BF801102A2927D1039B9BF802101A6822
:100A200005920433002A0BF102000393B8BF4FF084
:100A3000FF338346B8BF05938EE7039B073323F04C
:100A4000070308330393ADE7494243F002030791DC
:100A500004937DE703AA00921B4B424604A9484633
:100A600000F06CFB07469BE7A1F130020023092A46
:100A700005930BF1010B3FF66FAF1BF8011F03EB62
:100A8000830302EB4303A1F13002092AF5D9059350
:100A900062E7402100F044F8C8F80000C8F81000F0
:100AA00018B14023C8F8143002E70C23C9F800300D
:100AB0004FF0FF3082E700BF5C3600086436000864
:100AC0006836000800000000CD060008014B1868D9
:100AD000704700BF0000002070B5104E3368054617
:100AE0000C46B3B12146284600F06EFC431C0CD0E6
:100AF000C41C24F00304A04205D0211A284600F0AB
:100B000063FC013001D0204670BD4FF0FF34204619
:100B100070BD194600F058FC3060E3E7B4010020D6
:100B20002DE9F843CD1C25F0030508350C2D38BF01
:100B30000C25002D064618DBA94216D8DFF8DC800C
:100B400000F03EFCD8F80420A2B1144603E063682C
:100B500022467BB11C4623685B1BF8D40B2B1FD8A5
:100B60009442636854D053600CE00C23336000203F
:100B7000BDE8F88329463046FFF7AEFF431C044624
:100B800019D00560304600F01DFC04F10B00231D58
:100B900020F00700C21A1CBF1B1AA350BDE8F8833F
:100BA00061199442256014BF5160C8F80410635164
:100BB00063684B60E6E7D8F804701FB33C467F6873
:100BC000002FFBD123683946304604EB030900F0BF
:100BD000FBFB814516D12368ED1A29463046FFF705
:100BE0007BFF01300ED02368D8F804202B4423600B
:100BF000536883B1A34203D01A465B689C42FBD181
:100C00000023B0E70C233360304600F0DBFBAEE797
:100C1000C8F80430B6E7C8F80470B3E7B4010020A0
:100C2000002950D038B551F8043C0C1F002BB8BF38
:100C3000E418054600F0C4FB274A13682BB1A34211
:100C40000CD92168601883422CD063602846146058
:100C5000BDE8384000F0B6BBA3420FD81A465B6827
:100C6000002BF9D111685018844217D02CD363603F
:100C700054602846BDE8384000F0A4BB1168501805
:100C8000A04214D020D8216860188342EFD11868A0
:100C90005B680844C4E900035460EAE723680B4436
:100CA0001360E6E718685B6808442060CDE72068B9
:100CB0000144501883421160DBD1D3E900040144A0
:100CC000C2E90014D5E770470C232B602846BDE825
:100CD000384000F077BB00BFB801002088420ED931
:100CE0008B1883420BD900EB020C002A6ED06246AF
:100CF00013F801CD02F801CD9942F9D170470F2ABE
:100D00000FD8034602F1FF3C002A5FD00CF1010C22
:100D1000013B8C4411F8012B03F8012F6145F9D1F7
:100D2000704740EA01039B0751D1A2F1100370B54F
:100D300001F1200C23F00F0501F1100E00F1100459
:100D4000AC441B095EF8105C44F8105C5EF80C5C67
:100D500044F80C5C5EF8085C44F8085C5EF8045CDF
:100D600044F8045C0EF1100EE64504F11004E9D1DC
:100D7000013312F00C0F01EB031102F00F0400EB32
:100D8000031328D0043C24F003064FEA940C1E44BD
:100D90001C1F8E465EF8045B44F8045FB442F9D130
:100DA0000CF1010402F0030203EB840301EB840164
:100DB00002F1FF3C4AB10CF1010C013B8C4411F8EB
:100DC000012B03F8012F6145F9D170BD704702F185
:100DD000FF3C03469AE72246EAE700BF0000000016
:100DE00001F0FF01102A2BDB10F0070F08D010F8DC
:100DF000013B013A8B422DD010F0070F42B3F6D1E0
:100E0000F0B441EA012141EA014122F007047FF0F8
:100E100000070023F0E80256083C85EA010586EA4F
:100E2000010685FA47F5A3FA87F586FA47F6A5FA8B
:100E300087F68EB9EED1F0BC01F0FF0102F0070297
:100E400032B110F8013B013A83EA010313B1F8D142
:100E50000020704701387047002D06BF3546033823
:100E6000073815F0010F07D1013015F4807F02BF5C
:100E7000013015F4C03F0130F0BC0138704700BFAD
:100E8000844641EA000313F003036DD1403A41D395
:100E900051F8043B40F8043B51F8043B40F8043B54
:100EA00051F8043B40F8043B51F8043B40F8043B44
:100EB00051F8043B40F8043B51F8043B40F8043B34
:100EC00051F8043B40F8043B51F8043B40F8043B24
:100ED00051F8043B40F8043B51F8043B40F8043B14
:100EE00051F8043B40F8043B51F8043B40F8043B04
:100EF00051F8043B40F8043B51F8043B40F8043BF4
:100F000051F8043B40F8043B51F8043B40F8043BE3
:100F1000403ABDD2303211D351F8043B40F8043B83
:100F200051F8043B40F8043B51F8043B40F8043BC3
:100F300051F8043B40F8043B103AEDD20C3205D393
:100F400051F8043B40F8043B043AF9D2043208D08B
:100F5000D2071CBF11F8013B00F8013B01D30B88FD
:100F600003806046704700BF082A13D38B078DD0DB
:100F700010F003038AD0C3F10403D21ADB071CBFAD
:100F800011F8013B00F8013B80D331F8023B20F817
:100F9000023B7BE7043AD9D3013A11F8013B00F850
:100FA000013BF9D20B7803704B7843708B788370D8
:100FB000604670472DE9F041144641B30AB3064636
:100FC0000D4600F013FA8442074602D8B4EB500FE6
:100FD00013D821463046FFF7A3FD804650B1BC42EE
:100FE0002246294628BF3A46FFF74AFF294630469F
:100FF000FFF716FE4046BDE8F081A8464046BDE832
:10100000F081A046FFF70CFE4046BDE8F081BDE848
:10101000F0411146FFF784BD2DE9F84F92461F4677
:101020000A698B68DDF828909A42B8BF1A46CAF858
:10103000002091F843300C46064613B10132CAF83D
:101040000020226891065FD5DAF800300233CAF832
:101050000030226812F0060F11461DD1E168994256
:10106000D8BF114618DD4FF0000804F1190B05E058
:10107000E568DAF80030ED1A45450CDD01235A46E3
:1010800039463046C847013008F10108F0D14FF029
:10109000FF30BDE8F88F216894F84330003B18BF5B
:1010A00001238A060AD5E1185A1C302081F8430032
:1010B000224494F8451082F84310023304F14302AD
:1010C00039463046C8470130E1D02368DAF800508D
:1010D000216903F00603042BD4E902201BD08A42C5
:1010E00020DD4FF00008521A90441A34002501E028
:1010F000454517DA0123224639463046C8470130B4
:1011000005F10105F4D1C2E712F0060F0DD0003B46
:1011100018BF0123D2E7401B8A4220EAE078E2DCD4
:101120000028E2DC0020BDE8F88FE168DAF8003042
:101130009942D8BF114696DCAEE700BF2DE9F047D3
:10114000174684B00A7E0C9D0C460646984601F16F
:10115000430C002A35D0A2F15803D9B2202969D80E
:10116000202B67D8DFE813F0E60066006600660013
:101170006600660066006600660066006600AC00F9
:10118000700066006600660066007000660066001B
:101190006600660021008300C60066006600B60097
:1011A0006600830066006600EC002B6822686169B7
:1011B000181D286010061B6802D4520600F1E0805A
:1011C00019600023E1462361CDF800803B4603AA65
:1011D00021463046FFF720FF013020D023694A46E0
:1011E00039463046C047013019D02368E068DDF841
:1011F0000C909B0718D5484516DD002504F1190A07
:1012000004E0E068A0EB0903AB420DDD0123524688
:1012100039463046C047013005F10105F1D14FF0A4
:10122000FF3004B0BDE8F0874845B8BF484604B079
:10123000BDE8F08784F84220012004F14209002330
:10124000206184F84330BFE72A682368111D18061F
:10125000296002D4590600F19580106801460028E3
:101260006268C0F2938054484FF00A0E15E020687F
:101270002B6810F0800F53F8041B02D1400648BFC2
:1012800089B26F2A4C482B6014BF4FF00A0E4FF002
:10129000080E0023626884F84330002AA26051DB04
:1012A000236823F00403236000294BD1002A7BD15B
:1012B000E146BEF1080F56D0ACEB0903236183E78A
:1012C0002B681A6804332B6004F1420984F8422029
:1012D0000120B4E72B686268191D2960D3F80090DB
:1012E00000214846FFF77CFD002863D0A0EB0900F1
:1012F0006060A4E7236843F02003236078222F482E
:1013000084F845202A6813F0800F52F8041B03D19B
:1013100013F0400F18BF89B22A60DA0744BF43F0C8
:101320002003236019B9236823F0200323604FF0C2
:10133000100EAEE7582384F845301F482368E1E7D4
:101340002368DBE77546E146B1FBF5F305FB131AAD
:101350000A46AA4210F80A1009F8011D1946F3D2EC
:10136000BEF1080FA8D12368DD07A5D562682369FF
:101370009A42A1DC302309F8013C09F1FF399BE7CF
:1013800019801EE7B2F90010084668E72D20002AF0
:10139000A26084F8430002DB23F0040323600A25E3
:1013A00005484942AE46CEE7037884F8423004F15E
:1013B00042097EE7606842E770360008843600081C
:1013C000704700BF704700BF38B5074D0022044684
:1013D00008462A6000F012F8431C00D038BD2B6884
:1013E000002BFBD0236038BDBC01002051F8043C29
:1013F000181F002BBCBF0B58C0187047044A054982
:101400001368002B08BF0B4618441060184670473D
:10141000C0010020B002002053B94AB9002908BF1A
:1014200000281CBF4FF0FF314FF0FF3000F06AB9C9
:10143000ADF1080C6DE904CE00F006F8DDF804E02B
:10144000DDE9022304B070472DE9F047089D0E4600
:1014500004460F46002B4AD194468C45B2FA82F2DC
:1014600060D942B1C2F12003974020FA03F30CFA8D
:1014700002FC1F4394404FEA1C4E1FFA8CF6B7FB48
:10148000FEF1230C0EFB117743EA074301FB06F044
:1014900098420AD91CEB030301F1FF3780F0158154
:1014A000984240F21281023963441B1AA4B2B3FB82
:1014B000FEF00EFB103344EA034400FB06F6A6429E
:1014C0000AD91CEB040400F1FF3380F00081A6422E
:1014D00040F2FD806444023840EA0140A41B002130
:1014E0001DB1D4400023C5E90043BDE8F0878B421D
:1014F00005D90DB1C5E9000100210846F5E7B3FAA9
:1015000083F1002946D1B34202D3824200F2F58032
:10151000841A66EB030201201746002DE5D0C5E9C9
:101520000047E2E7002A40F09380A1EB0C034FEA6A
:101530001C471FFA8CFE0121B3FBF7F607FB1630A0
:10154000230C43EA00430EFB06F0984208D91CEB3B
:10155000030306F1FF3802D2984200F2D0804646DB
:101560001B1AA4B2B3FBF7F007FB103344EA0344A1
:101570000EFB00FEA64508D91CEB040400F1FF3366
:1015800002D2A64500F2B6801846A4EB0E0440EA4B
:101590000640A5E7C1F120078B4022FA07FC4CEA80
:1015A000030C06FA01FE20FA07F426FA07F344EAD0
:1015B0000E0400FA01F84FEA1C404FEA1449B3FB4D
:1015C000F0FE1FFA8CF600FB1E3349EA03430EFBC4
:1015D00006F9994502FA01F20BD91CEB03030EF14F
:1015E000FF3A80F08580994540F28280AEF1020E8C
:1015F0006344A3EB0909A4B2B9FBF0F300FB139910
:1016000044EA094403FB06F6A64208D91CEB04048D
:1016100003F1FF3068D2A64266D9023B644443EA34
:101620000E40A41BA0FB02E6B4427346B14652D35F
:101630004FD05DB1B8EB030264EB090404FA07F77D
:1016400022FA01F31F43CC40C5E9007400214CE7A6
:10165000C2F1200120FA01F30CFA02FC26FA01F192
:10166000964033434FEA1C471FFA8CFEB1FBF7F05C
:1016700007FB1016190C41EA064100FB0EF68E42DC
:1016800004FA02F408D91CEB010100F1FF382DD255
:101690008E422BD902386144891B9BB2B1FBF7F60D
:1016A00007FB161143EA014306FB0EF1994208D9E4
:1016B0001CEB030306F1FF3814D2994212D9023E03
:1016C00063445B1A46EA004136E73946EDE61846C0
:1016D00002E7F045ADD2BEEB020366EB0C06013823
:1016E000B146A6E74646ECE7034698E74046D3E70F
:1016F000D6467EE76444023847E708460DE7023ED7
:1017000063442DE7704700BF72B6FEE700B595B0A1
:101710003022002108A8FEF73FFE00230393049324
:101720000593069307930193184A116C41F0805179
:101730001164126C02F080520192019A0293144AD1
:10174000116841F480411160126802F480420292F3
:10175000029A0222089201220B9210220C920E93FE
:1017600008A800F04FFD68B90F23039300210491EE
:1017700005910691079103A800F094FF20B915B0D8
:101780005DF804FBFFF7C0FFFFF7BEFF0038024023
:101790000070004010B58EB001F056FAFFF7B6FFAA
:1017A00000F06CF800F0CEF900F02EF900F088F9A6
:1017B00000212B4800F034FC00212A4800F030FCC6
:1017C00020E00DF1040C284C0FCCACE80F000FCC3E
:1017D000ACE80F0094E80700ACE803002CF8022BFB
:1017E000120C8CF8002001A8FEF76AFD4FF0FF33C1
:1017F00082B201A91D4801F0ACFB1D4B00221A600A
:101800005A601A814FF0FF330A221949174801F034
:1018100006FC0028F6D11648FEF710FE0346B42851
:10182000CFD84200134981FB02011144D217C2EB09
:10183000611292B2053292B20A4909684A630E4AAD
:10184000322101A8FEF7FAFE01A8FEF739FD4FF09C
:10185000FF3382B201A9054801F07BFBCDE700BF51
:1018600018020020D001002030360008600200205D
:10187000C4010020B7600BB61036000870B588B000
:101880000024039404940594069407940094224B36
:101890001A6B42F001021A631A6B02F00102009205
:1018A000009A01941A6B42F010021A631A6B02F04C
:1018B00010020192019A02941A6B42F008021A6314
:1018C0001B6B03F008030293029B144D22464FF456
:1018D0004041284601F0B2F84FF48053039304943A
:1018E000059403A9284600F0B3FF4FF40053039377
:1018F00004940126059603A9284600F0A9FF4FF499
:101900004043039304960594069403A9284600F0E7
:101910009FFF08B070BD00BF00380240000C0240BD
:1019200082B00368104A934204D0104A93420ED00A
:1019300002B07047002300930D4B5A6C42F0010235
:101940005A645B6C03F001030093009BF0E70023F3
:101950000193074B1A6C42F002021A641B6C03F0ED
:1019600002030193019BE3E70000014000040040F3
:101970000038024000B589B0002303930493059317
:101980000693079303681B4A934205D01A4A934271
:101990001AD009B05DF804FB00230193174B1A6BB2
:1019A00042F010021A631B6B03F010030193019BBA
:1019B0004FF400730393022304930123079303A9B5
:1019C0000F4800F045FFE4E7002302930B4B1A6B2E
:1019D00042F001021A631B6B03F001030293029BA6
:1019E0004023039302230493079303A9054800F0BF
:1019F0002FFFCEE700000140000400400038024005
:101A0000001002400000024010B592B00024109473
:101A1000119409940A940B940C940D940E940F94C1
:101A20002022214601A8FEF7B7FC2348234B036080
:101A3000A0234360846046F2A813C360046144613C
:101A4000846100F00BFA00282AD10023109311932F
:101A500010A9194800F066FB28BB602309930123F5
:101A60000A9300220B920C920D920E920F9209A9EA
:101A7000114800F057FAC8B9002301930293039369
:101A8000049305934FF400520692089301A90A4863
:101A900000F08EFB68B90848FFF76CFF12B010BD6C
:101AA000FFF732FED1E7FFF72FFED6E7FFF72CFE58
:101AB000E2E7FFF729FEEEE71802002000000140F0
:101AC00000B58BB00023089309930193029303930D
:101AD00004930593069307931848194A026040F649
:101AE0009F42426083606322C2600361836100F0B1
:101AF000B5F9C8B900230893099308A90F4800F065
:101B000011FBA0B9602301930523029300220392E5
:101B1000059201A9094800F005FA58B90748FFF7EE
:101B200029FF0BB05DF804FBFFF7EEFDE2E7FFF7DE
:101B3000EBFDE7E7FFF7E8FDF0E700BFD00100208D
:101B40000004004008B50A480A4B03604FF4E13333
:101B5000436000238360C36003610C2242618361A0
:101B6000C36101F0C6F900B908BDFFF7CDFDFBE781
:101B7000600200200044004010B588B000230393A9
:101B800004930593069307930268184B9A4201D079
:101B900008B010BD0024019403F5FA331A6C42F426
:101BA00000321A641A6C02F400320192019A029413
:101BB0001A6B42F001021A631B6B03F001030293DC
:101BC000029B0C230393022304930323069307230E
:101BD000079303A9064800F03BFE22462146262033
:101BE00000F0E4FF262000F0F1FFD1E700440040C0
:101BF00000000240FEE7FEE7FEE7FEE7FEE7704773
:101C00007047704708B501F039F808BD08B50248BB
:101C100001F0FAFA08BD00BF6002002082B0002186
:101C200000910B4B5A6C42F480425A645A6C02F495
:101C300080420092009A01911A6C42F080521A641C
:101C40001B6C03F080530193019B02B0704700BFEF
:101C50000038024030B4036A026A22F001020262D4
:101C60004268846924F0730C0C6844EA0C0423F085
:101C7000020C8B6843EA0C03114DA84203D005F512
:101C80008065A84205D123F00803CD682B4323F0DB
:101C900004030B4DA84203D005F58065A84207D187
:101CA00022F440724D6945EA020C8A6942EA0C024C
:101CB000426084614A684263036230BC704700BF7F
:101CC0000000014030B4036A026A22F480720262AA
:101CD0004268C46924F0730C0C6844EA0C0523F4D0
:101CE00000738C6843EA0423114CA04203D004F52E
:101CF0008064A04206D123F40063CC6843EA042345
:101D000023F480630A4CA04203D004F58064A0420F
:101D100007D122F440524C6942EA04128C6942EA2B
:101D200004124260C5614A68C263036230BC7047F6
:101D30000000014030B4036A026A22F48052026259
:101D40004468C26922F4E6420D6842EA052223F49F
:101D500000538D6843EA0533094DA84203D005F5C9
:101D60008065A84204D124F480444D6944EA851476
:101D70004460C2614A680264036230BC704700BFBD
:101D8000000001400368344A904212D0B0F1804F05
:101D90000FD0A2F57C4290420BD002F580629042B7
:101DA00007D002F58062904203D002F5784290425B
:101DB00003D123F070034A681343274A90422AD084
:101DC000B0F1804F27D0A2F57C42904223D002F59B
:101DD000806290421FD002F5806290421BD002F5D3
:101DE0007842904217D002F57052904213D002F51B
:101DF000806290420FD002F5806290420BD0A2F533
:101E00009832904207D002F58062904203D002F5EA
:101E10008062904203D123F44073CA68134323F0D5
:101E200080034A69134303608B68C3620B68836253
:101E3000094B984203D003F58063984201D10B69A6
:101E4000036301234361036913F0010F03D00369A6
:101E500023F00103036170470000014040B310B557
:101E6000044690F83D30F3B1022384F83D3021461A
:101E700051F8040BFFF786FF012384F8463084F8FD
:101E80003E3084F83F3084F8403084F8413084F8A4
:101E9000423084F8433084F8443084F8453084F884
:101EA0003D30002010BD80F83C30FFF739FDDBE706
:101EB0000120704730B4036A026A22F01002026205
:101EC0004468826922F4E6420D6842EA052223F062
:101ED00020038D6843EA0513114DA84203D005F590
:101EE0008065A84206D123F08003CD6843EA05133C
:101EF00023F040030A4DA84203D005F58065A842AF
:101F000007D124F440644D6944EA85048D6944EAAC
:101F10008504446082614A688263036230BC704712
:101F20000000014038B590F83C30012B66D00446E3
:101F30000D46012380F83C300C2A5AD8DFE802F025
:101F4000075959591B595959305959594400006872
:101F5000FFF780FE2268936943F0080393612268CB
:101F6000936923F0040393612268936929690B4301
:101F7000936100203EE00068FFF79CFF22689369B0
:101F800043F4006393612268936923F4806393614F
:101F900022689369296943EA01239361002029E0BB
:101FA0000068FFF78FFE2268D36943F00803D3610E
:101FB0002268D36923F00403D3612268D3692969B5
:101FC0000B43D361002015E00068FFF7B3FE2268E1
:101FD000D36943F40063D3612268D36923F4806337
:101FE000D3612268D369296943EA0123D3610020C0
:101FF00000E00120002384F83C3038BD0220FCE7DB
:1020000001F01F014FF0010C0CFA01FC036A23EAF6
:102010000C030362036A8A401343036270470000A3
:1020200010B504460846002942D194F83E30DBB290
:10203000013B18BF0123002B6ED1002851D1022390
:1020400084F83E30012201462068FFF7D9FF23685B
:10205000334A934203D002F58062934203D15A6C13
:1020600042F400425A6423682D4A934249D0B3F1A6
:10207000804F46D0A2F57C42934242D002F5806266
:1020800093423ED002F5806293423AD002F5784204
:10209000934236D002F57052934232D0A2F5943278
:1020A00093422ED01A6842F001021A60002032E0FA
:1020B000042908D008290DD094F84130DBB2013B47
:1020C00018BF0123B7E794F83F30DBB2013B18BFDC
:1020D0000123B0E794F84030DBB2013B18BF012385
:1020E000A9E7042805D0082807D0022384F8413046
:1020F000A8E7022384F83F30A4E7022384F84030A5
:10210000A0E79A6802F00702062A07D01A6842F090
:1021100001021A60002010BD0120FCE70020FAE750
:102120000000014090F83C20012A3DD010B4034645
:10213000012280F83C20022280F83D20026850688D
:10214000946820F0700C086840EA0C0050601A682F
:10215000164882421AD0B2F1804F17D0A0F57C40C9
:10216000824213D000F5806082420FD000F580607B
:1021700082420BD000F57840824207D000F57050C3
:10218000824203D0A0F59430824204D124F080042E
:10219000496821439160012283F83D20002083F8A3
:1021A0003C005DF8044B704702207047000001407E
:1021B000024690F83C30012B21D0012380F83C30BE
:1021C000CB6823F440738868034323F48063486832
:1021D000034323F400630868034323F4805308692E
:1021E000034323F400534869034323F48043C9693C
:1021F0000B4311684B64002082F83C0070470220BA
:1022000070470000002800F0E08170B582B00446FD
:10221000036813F0010F3BD09F4B9B6803F00C0346
:10222000042B2CD09C4B9B6803F00C03082B21D073
:102230006368B3F5803F4FD0B3F5A02F52D0964BD3
:102240001A6822F480321A601A6822F480221A6016
:102250006368002B50D000F01DFD05468E4B1B68B7
:1022600013F4003F14D100F015FD401B6428F5D98C
:102270000320B1E1884B5B6813F4800FD8D0864B04
:102280001B6813F4003F03D06368002B00F09F81AC
:10229000236813F0020F54D07F4B9B6813F00C0F90
:1022A0003ED07D4B9B6803F00C03082B33D0E368D2
:1022B000002B68D0794B01221A6000F0EBFC054638
:1022C000754B1B6813F0020F54D100F0E3FC401B68
:1022D0000228F5D903207FE16F4A136843F4803365
:1022E0001360B5E76C4B1A6842F480221A601A68D2
:1022F00042F480321A60ABE700F0CCFC0546664B36
:102300001B6813F4003FC3D000F0C4FC401B6428DA
:10231000F5D9032060E1604B5B6813F4800FC6D1F0
:102320005D4B1B6813F0020F03D0E368012B40F0F4
:102330005081594A136823F0F803216943EAC10325
:102340001360236813F0080F42D063696BB3534BDB
:102350000122C3F8802E00F09DFC05464E4B5B6FBA
:1023600013F0020F34D100F095FC401B0228F5D980
:10237000032031E1484A136823F0F803216943EA56
:10238000C1031360DDE7454B00221A6000F082FCB8
:102390000546414B1B6813F0020FD2D000F07AFCC7
:1023A000401B0228F5D9032016E13C4B0022C3F85C
:1023B000802E00F06FFC0546374B5B6F13F0020F69
:1023C00006D000F067FC401B0228F5D9032003E18A
:1023D000236813F0040F77D02F4B1B6C13F0805F32
:1023E00033D1002301932C4B1A6C42F080521A64B3
:1023F0001B6C03F080530193019B0125284B1B6844
:1024000013F4807F23D0A368012B34D0052B38D060
:10241000214B1A6F22F001021A671A6F22F0040290
:102420001A67A368002B3DD000F034FC06461A4B17
:102430001B6F13F0020F46D100F02CFC801B41F201
:1024400088339842F3D90320C6E00025D6E7144A22
:10245000136843F48073136000F01CFC0646104BB5
:102460001B6813F4807FCED100F014FC801B02287F
:10247000F5D90320B0E0084A136F43F00103136756
:10248000CFE7054B1A6F42F004021A671A6F42F049
:1024900001021A67C5E700BF00380240000047424A
:1024A0000070004000F0F6FB0646524B1B6F13F025
:1024B000020F08D000F0EEFB801B41F288339842F7
:1024C000F3D9032088E0EDB9A369002B00F08380E5
:1024D000484A926802F00C02082A51D0022B17D009
:1024E000454B00221A6600F0D5FB0446414B1B68A1
:1024F00013F0007F42D000F0CDFB001B0228F5D97D
:10250000032069E03B4A136C23F080531364DBE73C
:10251000394B00221A6600F0BDFB0546354B1B689F
:1025200013F0007F06D000F0B5FB401B0228F5D960
:10253000032051E0E369226A1343626A43EA82138B
:10254000A26A5208013A43EA0243E26A43EA02639A
:10255000284A5360284B01221A6600F09BFB044670
:10256000244B1B6813F0007F06D100F093FB001B87
:102570000228F5D903202FE000202DE000202BE0D9
:10258000012B2BD01B4B5B6803F48001E269914265
:1025900026D103F03F02216A8A4223D1616A47F6BD
:1025A000C0721A40B2EB811F1ED103F44031A26AFF
:1025B0005208013AB1EB024F18D103F07063E26A9E
:1025C000B3EB026F14D1002006E001207047012018
:1025D00002E0012000E0002002B070BD0120FBE716
:1025E0000120F9E70120F7E70120F5E70120F3E7F3
:1025F0000120F1E7003802400000474208B5264BB1
:102600009B6803F00C03042B41D0082B41D1224BD3
:102610005A6802F03F025B6813F4800F12D01E4B21
:102620005968C1F388111D480023A1FB0001FEF782
:10263000F3FE194B5B68C3F3014301335B00B0FB4E
:10264000F3F008BD144B5868C0F388104FEA401CE3
:10265000BCEB000C6EEB0E0E4FEA8E1343EA9C634C
:102660004FEA8C11B1EB0C0163EB0E03DB0043EA84
:102670005173C90011EB000C43F1000399020023D0
:102680004FEA8C2041EA9C51FEF7C6FED1E7034891
:10269000D7E70348D5E700BF0038024040787D0106
:1026A0000024F400002800F09B8070B50D4604461D
:1026B0004F4B1B6803F007038B4208D2CBB24C4A46
:1026C0001370136803F007038B4240F08B8023687C
:1026D00013F0020F17D013F0040F04D0454A93688B
:1026E00043F4E0539360236813F0080F04D0414A89
:1026F000936843F4604393603E4A936823F0F00389
:10270000A1680B439360236813F0010F32D0636814
:10271000012B21D09A1E012A25D9364A126812F0BF
:10272000020F61D033498A6822F0030213438B60A1
:1027300000F0B0FA06462F4B9B6803F00C0362686A
:10274000B3EB820F16D000F0A5FA801B41F288335C
:102750009842F0D9032042E0264A126812F4003F62
:10276000E0D101203BE0234A126812F0007FD9D16A
:10277000012034E01E4B1B6803F00703AB4207D96E
:10278000EAB21B4B1A701B6803F00703AB422DD152
:10279000236813F0040F06D0164A936823F4E0531D
:1027A000E1680B439360236813F0080F07D0114AC8
:1027B000936823F46043216943EAC1039360FFF700
:1027C0001DFF0C4B9B68C3F303130B4AD35CD8402B
:1027D0000A4B18600A4B186800F010FA002070BD10
:1027E000012070470120FAE70120F8E70120F6E711
:1027F000003C024000380240A0360008580000208B
:1028000054000020014B1868704700BF580000209A
:1028100008B5FFF7F7FF044B9B68C3F38223034A15
:10282000D35CD84008BD00BF00380240983600088D
:1028300008B5FFF7E7FF044B9B68C3F34233034A35
:10284000D35CD84008BD00BF00380240983600086D
:1028500000230F2B00F2E98070B582B065E0856837
:102860004FEA430E032404FA0EF425EA0405CC686B
:1028700004FA0EF42C438460446824EA02044A6893
:10288000C2F300129A40224342605CE0DC08083444
:1028900050F8242003F00705AD004FF00F0E0EFA9C
:1028A00005FE22EA0E0E0A69AA4042EA0E0240F82C
:1028B00024205CE0072200E0002202FA0EF22A4304
:1028C00002345A4D45F82420594A94686FEA0C02A4
:1028D00024EA0C054E6816F4801F01D04CEA04056A
:1028E000534CA560E46802EA04054E6816F4001F24
:1028F00001D04CEA04054E4CE560646802EA040528
:102900004E6816F4003F01D04CEA0405484C65605F
:10291000246822404D6815F4803F01D04CEA04023F
:10292000434C226001330F2B7DD801229A400C6862
:1029300004EA020C32EA0404F4D14C6804F0030403
:10294000013C012C8BD94A6802F00302032A09D00A
:10295000C4685D000322AA4024EA02048A68AA40EF
:102960002243C2604A6802F00302022A8ED0046841
:102970004FEA430E032202FA0EF224EA02044A68E6
:1029800002F0030202FA0EF2224302604A6812F4D5
:10299000403FC7D000220192264A546C44F4804440
:1029A0005464526C02F480420192019A9C08A51C66
:1029B0001E4A52F8255003F0030E4FEA8E0E0F22E6
:1029C00002FA0EF225EA02051B4A90423FF474AF68
:1029D00002F5806290421AD002F58062904218D0CF
:1029E00002F58062904216D002F58062904214D0C7
:1029F00002F58062904212D002F58062904210D0BF
:102A000002F5806290423FF455AF082255E701225B
:102A100053E7022251E703224FE704224DE7052244
:102A20004BE7062249E702B070BD7047003801400D
:102A3000003C014000380240000002400AB18161C0
:102A4000704709048161704770B50446866D00F0D7
:102A500021F994F83530DBB2022B06D08023636570
:102A6000002384F83430012070BD054622681368C5
:102A700023F0160313602268536923F08003536127
:102A8000236CE3B12268136823F008031360226803
:102A9000136823F00103136023681B6813F0010F10
:102AA00011D000F0F7F8431B052BF5D920236365FF
:102AB000032084F83500002384F83430D4E7A36C75
:102AC000002BDFD1E3E7E26D3F239340B3600123A6
:102AD00084F83530002084F83400C5E790F83530AC
:102AE000DBB2022B03D0802343650120704705230E
:102AF00080F835300268136823F00103136000206A
:102B000070470000002807DB00F01F024009012386
:102B10009340024A42F82030704700BF00E100E0D5
:102B2000002808DB0901C9B200F1604000F56140EE
:102B300080F80013704700F00F000901C9B2014B83
:102B40001954704714ED00E000B500F00700C0F123
:102B5000070CBCF1040F28BF4FF0040C031D062B1B
:102B60000FD9C31E4FF0FF3E0EFA0CF021EA000110
:102B700099400EFA03FE22EA0E0241EA02005DF8D5
:102B800004FB0023EEE70000074AD36823F4E06368
:102B90001B041B0C000200F4E060034343F0BF631E
:102BA00043F40033D360704700ED00E010B50446F5
:102BB000054BD868C0F30220FFF7C6FF0146204648
:102BC000FFF7AEFF10BD00BF00ED00E008B5FFF756
:102BD00099FF08BD0138B0F1807F0BD24FF0E023A0
:102BE0005861054AF02182F82310002098610722DD
:102BF0001A6170470120704700ED00E010B50446EF
:102C00000E4B1A784FF47A73B3FBF2F30C4A106848
:102C1000B0FBF3F0FFF7DEFF68B90F2C01D90120FC
:102C20000AE0002221464FF0FF30FFF7BFFF054BBF
:102C30001C60002000E0012010BD00BF50000020FB
:102C4000580000205400002008B50B4B1A6842F4CD
:102C500000721A601A6842F480621A601A6842F4BC
:102C600080721A600320FFF78FFF0F20FFF7C6FF67
:102C7000FEF7D4FF002008BD003C0240034A116863
:102C8000034B1B780B441360704700BFA802002061
:102C900050000020014B1868704700BFA8020020B8
:102CA000026802F10C0353E8003F23F490730C32E6
:102CB00042E800310029F3D1026802F1140353E81D
:102CC000003F23F00103143242E800310029F3D120
:102CD000036B012B05D0202380F8423000230363CF
:102CE0007047026802F10C0353E8003F23F0100321
:102CF0000C3242E800310029F3D1ECE790F8413082
:102D0000DBB2212B01D0022070478368B3F5805FCE
:102D100017D0036A5A1C02621A7803685A60C38C7F
:102D20009BB2013B9BB2C3844BB90268D36823F0CA
:102D30008003D3600268D36843F04003D36000206F
:102D400070470369002BE4D1036A1B880268C3F350
:102D500008035360036A02330362E0E710B50446D8
:102D60000268136923F44053C1680B4313618368FD
:102D700002691A4343691A43C3691A430168CB685D
:102D800023F4164323F00C031343CB60026853690A
:102D900023F4407381690B4353610368314A9342C2
:102DA00006D002F58062934202D0FFF731FD01E0C8
:102DB000FFF73EFDE369B3F5004F29D0002103186A
:102DC00049411B1841F10001C90041EA5371DB0080
:102DD000181863684FEA83024FEA937341F10001C8
:102DE000FEF71AFB204AA2FB00314909642303FBCA
:102DF00011031B013233A2FB03235B0903F0F00232
:102E000002EB011203F00F03216813448B6010BD25
:102E10000023021843EB0301121841F10001C9001D
:102E200041EA5271D200101841F100016268921813
:102E30005B41FEF7F1FA0C4AA2FB00314909642319
:102E400003FB1103DB003233A2FB03235B095A00AF
:102E500002F4F87202EB011203F007032168134435
:102E60008B60D4E7001001401F85EB512DE9F04342
:102E700083B005460E4617469946DDF828802B6834
:102E80001C6836EA04040CBF01240024BC4228D18B
:102E9000B8F1FF3FF3D0FFF7FDFEA0EB090040457E
:102EA00023D8B8F1000F22D02B68DA6812F0040F93
:102EB000E5D0802EE3D0402EE1D01A6812F0080F42
:102EC000DDD0002401941A6801925B680193019B94
:102ED0002846FFF7E5FE08236B6485F84040012093
:102EE00000E0002003B0BDE8F0830320FAE70320F0
:102EF000F8E760B310B5044690F8413013B32423CB
:102F000084F841302268D36823F40053D36020460C
:102F1000FFF724FF2268136923F4904313612268AA
:102F2000536923F02A0353612268D36843F40053A2
:102F3000D36000206064202384F8413084F842305C
:102F4000606310BD80F84030FEF716FED7E7012021
:102F500070472DE9F04182B01E4690F84130DBB257
:102F6000202B56D104460D469046002955D00AB96B
:102F700001204FE000234364212380F84130FFF714
:102F800089FE0746A4F82480A4F82680A368B3F538
:102F9000805F02D04FF0000814E023692BB34FF09C
:102FA00000080FE0202384F84130032032E038F895
:102FB000023B2268C3F308035360E28C92B2013AE9
:102FC00092B2E284E38C9BB293B100963B4600221E
:102FD00080212046FFF74AFF0028E3D1002DE6D0EC
:102FE00015F8012B23685A60E7E7A8460025E9E7B2
:102FF00000963B46002240212046FFF737FF18B9D4
:10300000202384F8413005E0202384F84130032058
:1030100000E0022002B0BDE8F0810120FAE72DE9CE
:10302000F04182B01E4690F84230DBB2202B59D1DD
:1030300004460D469046002958D00AB9012052E0B6
:1030400000234364222280F842200363FFF722FE1C
:103050000746A4F82C80A4F82E80A368B3F5805FFF
:1030600002D04FF000081CE0236913B14FF00008B4
:1030700017E0A846002514E0202384F842300320FE
:1030800031E023685B68C3F3080328F8023B03E0E0
:1030900023685B682B700135E28D92B2013A92B2DF
:1030A000E285E38D9BB2C3B100963B46002220210E
:1030B0002046FFF7DBFE0028DED1002DE1D0A3681B
:1030C000B3F5805FE4D013B92369002BE0D0236807
:1030D0005B6803F07F032B70DDE7202384F8423028
:1030E000002000E0022002B0BDE8F0810120FAE7F4
:1030F000704708B50168CA6822F04002CA60202201
:1031000080F84120FFF7F4FF002008BD70477047AA
:1031100008B5806B0023C385C384FFF7F8FF08BDA3
:10312000704790F84230DBB2222B69D18368B3F547
:10313000805F4FD0826AB3F5805F04D0002B56D1F8
:103140000369002B53D103685B681370836A0133F2
:103150008362C38D9BB2013B9BB2C385002B51D1CF
:1031600000B583B00268D36823F02003D3600268FF
:10317000D36823F48073D3600268536923F001039A
:103180005361202380F8423000234363036B012BFB
:1031900033D100230363026802F10C0353E8003FBC
:1031A00023F010030C3242E800310029F3D1036808
:1031B0001A6812F0100F06D0002201921A680192CC
:1031C0005B680193019B818DFFF7AAFF002003B08C
:1031D0005DF804FB0269002AACD1826A03685B686F
:1031E000C3F308031380836A02338362B1E7036881
:1031F0005B6803F07F031370A8E7FFF787FFE5E73D
:10320000022070470020704710B582B00446026863
:103210001368D068516913F00F0F09D113F0200F14
:103220000CD010F0200F09D02046FFF77AFF16E0EF
:1032300011F0010115D110F4907F12D1216B0129F9
:1032400079D013F0800F03D010F0800F40F014817C
:1032500013F0400F03D010F0400F40F0118102B086
:1032600010BD13F0010F06D010F4807F03D0626C04
:1032700042F00102626413F0040F04D019B1626CD1
:1032800042F00202626413F0020F04D019B1626CC2
:1032900042F00402626413F0080F07D010F0200F10
:1032A00000D119B1626C42F008026264626C002ABB
:1032B000D5D013F0200F02D010F0200F29D12368B1
:1032C0005B6903F04003626C12F0080F00D163B336
:1032D0002046FFF7E5FC23685B6913F0400F20D020
:1032E000226802F1140353E8003F23F04003143234
:1032F00042E800310029F3D1E36B73B1624A1A65E9
:10330000E06BFFF7EBFB0028A9D0E06B036D98475B
:10331000A5E72046FFF705FFD1E72046FFF7F7FEB8
:103320009DE72046FFF7F3FE99E72046FFF7EFFE03
:103330000023636493E713F0100F82D010F0100F96
:103340003FF47FAF00230193136801935368019307
:10335000019B536913F0400F52D0E26B13685B6816
:103360009BB2002B3FF47BAFA18D99427FF677AFE4
:10337000E385D369B3F5807F37D0226802F10C036F
:1033800053E8003F23F480730C3242E800310029F7
:10339000F3D1226802F1140353E8003F23F0010344
:1033A000143242E800310029F3D1226802F11403FB
:1033B00053E8003F23F04003143242E80031002973
:1033C000F3D1202384F8423000232363226802F1E2
:1033D0000C0353E8003F23F010030C3242E80031A5
:1033E0000029F3D1E06BFFF72FFB02236363A18D6C
:1033F000E38D9BB2C91A89B22046FFF791FE2EE7F2
:10340000A18DE38D9BB2C91A89B2E38D9BB2002BCB
:103410003FF425AF00293FF422AF226802F10C03EC
:1034200053E8003F23F490730C3242E80030002848
:10343000F3D1226802F1140353E8003F23F00103A3
:10344000143242E800300028F3D1202384F84230BF
:1034500000232363226802F10C0353E8003F23F0AA
:1034600010030C3242E800300028F3D102236363DA
:103470002046FFF755FEF2E62046FFF73FFCEEE65A
:103480002046FFF736FEEAE611310008034AD2F87B
:10349000883043F47003C2F88830704700ED00E0D4
:1034A000DFF834D0FFF7F2FF0C480D490D4A002336
:1034B00002E0D458C4500433C4188C42F9D30A4AE9
:1034C0000A4C002301E013600432A242FBD3FCF754
:1034D000BBFEFEF75FF970470000022000000020ED
:1034E0005C000020C03600085C000020AC02002018
:1034F000FEE70000F8B500BFF8BC08BC9E46704768
:0C350000F8B500BFF8BC08BC9E46704740
:10350C0000202020202020202020282828282820A7
:10351C00202020202020202020202020202020209F
:10352C002088101010101010101010101010101007
:10353C0010040404040404040404041010101010F7
:10354C0010104141414141410101010101010101C1
:10355C000101010101010101010101011010101013
:10356C001010424242424242020202020202020293
:10357C0002020202020202020202020210101010E7
:10358C00200000000000000000000000000000000F
:10359C00000000000000000000000000000000001F
:1035AC00000000000000000000000000000000000F
:1035BC0000000000000000000000000000000000FF
:1035CC0000000000000000000000000000000000EF
:1035DC0000000000000000000000000000000000DF
:1035EC0000000000000000000000000000000000CF
:1035FC0000000000000000000000000000000000BF
:10360C0000000000506F736974696F6E206465660A
:10361C00696E69653A202564206465677265730D6F
:10362C000A0000004572726575723A20416E676C33
:10363C006520696E76616C6964652028302D31389F
:10364C0030207365756C656D656E74290D0A00000C
:10365C00232D302B20000000686C4C0065666745FC
:10366C004647000030313233343536373839414231
:10367C004344454600000000303132333435363790
:10368C003839616263646566000000000000000068
:10369C00010203040000000000000000010203040A
:0436AC0006070809FC
:0836B00010CCFF7F01000000B7
:0436B80029020008DB
:0436BC0001020008FF
:1036C000040000200000000078000020E00000203E
:1036D0004801002000000000000000000000000081
:1036E00000000000000000000000000000000000DA
:1036F00000000000000000000000000000000000CA
:1037000000000000000000000000000000000000B9
:0C37100001000000100000000024F40084
:04000005080034A11A
:00000001FF
