:020000040800F2
:1000000000000220911A00083D0800083F0800087F
:1000100041080008430800084508000800000000E7
:100020000000000000000000000000004708000879
:1000300049080008000000004B0800084D080008AF
:10004000E11A0008E11A0008E11A0008E11A0008A4
:10005000E11A0008E11A0008E11A0008E11A000894
:10006000E11A0008E11A0008E11A0008E11A000884
:10007000E11A0008E11A0008E11A0008E11A000874
:10008000E11A0008E11A0008E11A0008E11A000864
:10009000E11A0008E11A0008E11A0008E11A000854
:1000A000E11A0008E11A0008E11A0008E11A000844
:1000B000E11A0008E11A0008E11A0008E11A000834
:1000C000E11A0008E11A0008E11A0008E11A000824
:1000D000E11A0008E11A000855080008E11A0008B2
:1000E000E11A0008E11A0008E11A0008E11A000804
:1000F000E11A0008E11A0008E11A0008E11A0008F4
:10010000E11A0008E11A0008E11A0008E11A0008E3
:10011000E11A0008E11A0008E11A0008E11A0008D3
:10012000E11A0008E11A0008E11A0008E11A0008C3
:10013000E11A0008E11A0008E11A0008E11A0008B3
:10014000E11A0008E11A0008E11A0008E11A0008A3
:10015000E11A0008E11A0008E11A0008E11A000893
:10016000E11A0008E11A0008E11A0008E11A000883
:10017000E11A0008E11A0008E11A00080000000076
:08018000E11A0008E11A000871
:100188000348044B834202D0034B03B1184770471E
:100198000C0000200C000020000000000548064B61
:1001A8001B1AD90F01EBA301491002D0034B03B16D
:1001B800184770470C0000200C00002000000000C9
:1001C80010B5064C237843B9FFF7DAFF044B13B197
:1001D8000448AFF300800123237010BD0C000020F9
:1001E80000000000E41A000808B5044B1BB10449DC
:1001F8000448AFF30080BDE80840CFE700000000E6
:1002080010000020E41A000870B50F4B0F4DAB42E8
:10021800A3EB050607D0B610002455F8043B0134BB
:100228009847A642F9D801F059FC094D094B5E1BC5
:10023800AB424FEAA60606D0002455F8043B013429
:100248009847A642F9D870BD2C1B00082C1B000843
:100258002C1B0008301B0008830730B547D0541EFC
:10026800002A3ED0CAB2034601E0013C39D303F864
:10027800012B9D07F9D1032C2CD9CDB205EB05250F
:100288000F2C05EB054535D9A4F1100222F00F0C0F
:1002980003F1100EE6444FEA121C1A46C2E9005553
:1002A800C2E9025510327245F8D10CF1010214F07E
:1002B8000C0F03EB021204F00F0C13D0ACF1040383
:1002C80023F003030433134442F8045B9342FBD145
:1002D8000CF003042CB1C9B21C4403F8011BA3425F
:1002E800FBD130BD64461346002CF4D1F9E7034630
:1002F8001446C0E71A46A446E0E700BF53B94AB916
:10030800002908BF00281CBF4FF0FF314FF0FF3015
:1003180000F06AB9ADF1080C6DE904CE00F006F8FA
:10032800DDF804E0DDE9022304B070472DE9F04769
:10033800089D0E4604460F46002B4AD194468C452C
:10034800B2FA82F260D942B1C2F12003974020FA92
:1003580003F30CFA02FC1F4394404FEA1C4E1FFAA9
:100368008CF6B7FBFEF1230C0EFB117743EA07432B
:1003780001FB06F098420AD91CEB030301F1FF3791
:1003880080F01581984240F21281023963441B1AA9
:10039800A4B2B3FBFEF00EFB103344EA034400FBA7
:1003A80006F6A6420AD91CEB040400F1FF3380F0DC
:1003B8000081A64240F2FD806444023840EA0140D0
:1003C800A41B00211DB1D4400023C5E90043BDE8AA
:1003D800F0878B4205D90DB1C5E900010021084617
:1003E800F5E7B3FA83F1002946D1B34202D382423A
:1003F80000F2F580841A66EB030201201746002DEF
:10040800E5D0C5E90047E2E7002A40F09380A1EB78
:100418000C034FEA1C471FFA8CFE0121B3FBF7F6C9
:1004280007FB1630230C43EA00430EFB06F0984204
:1004380008D91CEB030306F1FF3802D2984200F2F8
:10044800D08046461B1AA4B2B3FBF7F007FB103363
:1004580044EA03440EFB00FEA64508D91CEB04043D
:1004680000F1FF3302D2A64500F2B6801846A4EB8D
:100478000E0440EA0640A5E7C1F120078B4022FAA6
:1004880007FC4CEA030C06FA01FE20FA07F426FAE8
:1004980007F344EA0E0400FA01F84FEA1C404FEA59
:1004A8001449B3FBF0FE1FFA8CF600FB1E3349EA31
:1004B80003430EFB06F9994502FA01F20BD91CEB2E
:1004C80003030EF1FF3A80F08580994540F282805F
:1004D800AEF1020E6344A3EB0909A4B2B9FBF0F331
:1004E80000FB139944EA094403FB06F6A64208D91F
:1004F8001CEB040403F1FF3068D2A64266D9023B24
:10050800644443EA0E40A41BA0FB02E6B4427346CF
:10051800B14652D34FD05DB1B8EB030264EB090486
:1005280004FA07F722FA01F31F43CC40C5E9007427
:1005380000214CE7C2F1200120FA01F30CFA02FC79
:1005480026FA01F1964033434FEA1C471FFA8CFE06
:10055800B1FBF7F007FB1016190C41EA064100FB46
:100568000EF68E4204FA02F408D91CEB010100F1E0
:10057800FF382DD28E422BD902386144891B9BB299
:10058800B1FBF7F607FB161143EA014306FB0EF130
:10059800994208D91CEB030306F1FF3814D299429B
:1005A80012D9023E63445B1A46EA004136E73946EF
:1005B800EDE6184602E7F045ADD2BEEB020366EB66
:1005C8000C060138B146A6E74646ECE7034698E72D
:1005D8004046D3E7D6467EE76444023847E70846F4
:1005E8000DE7023E63442DE7704700BF72B6FEE791
:1005F80000B595B03022002108A8FFF72DFE002392
:100608000393049305930693079301931C4A116C73
:1006180041F080511164126C02F080520192019AEB
:100628000293184A116841F480411160126802F47B
:1006380080420292029A0222089201210B91102113
:100648000C910E920F931091C023119312920423D0
:10065800139308A800F01EF968B90F23039300212B
:10066800049105910691079103A800F063FB20B956
:1006780015B05DF804FBFFF7B9FFFFF7B7FF00BF40
:10068800003802400070004008B500F025FEFFF772
:10069800AFFF00F025F800F075F84FF0FF330F2298
:1006A8000C490D4800F0B1FF0C4C01224FF40041F9
:1006B800204600F00BFD4FF4FA7000F039FE0022DE
:1006C8004FF40041204600F001FD4FF4FA7000F0AD
:1006D8002FFEE2E7FC1A000828000020000C024068
:1006E80070B588B000240394049405940694079484
:1006F8000094224B1A6B42F001021A631A6B02F043
:1007080001020092009A01941A6B42F010021A63D7
:100718001A6B02F010020192019A02941A6B42F0CD
:1007280008021A631B6B03F008030293029B144D23
:1007380022464FF44041284600F0C8FC4FF480534D
:1007480003930494059403A9284600F0C9FB4FF4C9
:100758000053039304940126059603A9284600F044
:10076800BFFB4FF44043039304960594069403A9F2
:10077800284600F0B5FB08B070BD00BF0038024045
:10078800000C024008B50A480A4B03604FF4E133F5
:10079800436000238360C36003610C22426183616C
:1007A800C36100F002FF00B908BDFFF71FFFFBE7B8
:1007B800280000200044004010B588B000230393AF
:1007C80004930593069307930268184B9A4201D045
:1007D80008B010BD0024019403F5FA331A6C42F4F2
:1007E80000321A641A6C02F400320192019A0294DF
:1007F8001A6B42F001021A631B6B03F001030293A8
:10080800029B0C23039302230493032306930723D9
:10081800079303A9064800F063FB224621462620D9
:1008280000F00CFD262000F019FDD1E7004400403F
:1008380000000240FEE7FEE7FEE7FEE7FEE770473E
:100848007047704708B500F061FD08BD08B502485B
:1008580000F0CEFF08BD00BF2800002082B00021B4
:1008680000910B4B5A6C42F480425A645A6C02F461
:1008780080420092009A01911A6C42F080521A64E8
:100888001B6C03F080530193019B02B0704700BFBB
:1008980000380240002800F0E08170B582B00446BC
:1008A800036813F0010F3BD09F4B9B6803F00C03C8
:1008B800042B2CD09C4B9B6803F00C03082B21D0F5
:1008C8006368B3F5803F4FD0B3F5A02F52D0964B55
:1008D8001A6822F480321A601A6822F480221A6098
:1008E8006368002B50D000F01DFD05468E4B1B6839
:1008F80013F4003F14D100F015FD401B6428F5D90E
:100908000320B1E1884B5B6813F4800FD8D0864B85
:100918001B6813F4003F03D06368002B00F09F812D
:10092800236813F0020F54D07F4B9B6813F00C0F11
:100938003ED07D4B9B6803F00C03082B33D0E36853
:10094800002B68D0794B01221A6000F0EBFC0546B9
:10095800754B1B6813F0020F54D100F0E3FC401BE9
:100968000228F5D903207FE16F4A136843F48033E6
:100978001360B5E76C4B1A6842F480221A601A6853
:1009880042F480321A60ABE700F0CCFC0546664BB7
:100998001B6813F4003FC3D000F0C4FC401B64285C
:1009A800F5D9032060E1604B5B6813F4800FC6D172
:1009B8005D4B1B6813F0020F03D0E368012B40F076
:1009C8005081594A136823F0F803216943EAC103A7
:1009D8001360236813F0080F42D063696BB3534B5D
:1009E8000122C3F8802E00F09DFC05464E4B5B6F3C
:1009F80013F0020F34D100F095FC401B0228F5D902
:100A0800032031E1484A136823F0F803216943EAD7
:100A1800C1031360DDE7454B00221A6000F082FC39
:100A28000546414B1B6813F0020FD2D000F07AFC48
:100A3800401B0228F5D9032016E13C4B0022C3F8DD
:100A4800802E00F06FFC0546374B5B6F13F0020FEA
:100A580006D000F067FC401B0228F5D9032003E10B
:100A6800236813F0040F77D02F4B1B6C13F0805FB3
:100A780033D1002301932C4B1A6C42F080521A6434
:100A88001B6C03F080530193019B0125284B1B68C5
:100A980013F4807F23D0A368012B34D0052B38D0E2
:100AA800214B1A6F22F001021A671A6F22F0040212
:100AB8001A67A368002B3DD000F034FC06461A4B99
:100AC8001B6F13F0020F46D100F02CFC801B41F283
:100AD80088339842F3D90320C6E00025D6E7144AA4
:100AE800136843F48073136000F01CFC0646104B37
:100AF8001B6813F4807FCED100F014FC801B022801
:100B0800F5D90320B0E0084A136F43F001031367D7
:100B1800CFE7054B1A6F42F004021A671A6F42F0CA
:100B280001021A67C5E700BF0038024000004742CB
:100B38000070004000F0F6FB0646524B1B6F13F0A6
:100B4800020F08D000F0EEFB801B41F28833984278
:100B5800F3D9032088E0EDB9A369002B00F0838066
:100B6800484A926802F00C02082A51D0022B17D08A
:100B7800454B00221A6600F0D5FB0446414B1B6822
:100B880013F0007F42D000F0CDFB001B0228F5D9FE
:100B9800032069E03B4A136C23F080531364DBE7BE
:100BA800394B00221A6600F0BDFB0546354B1B6821
:100BB80013F0007F06D000F0B5FB401B0228F5D9E2
:100BC800032051E0E369226A1343626A43EA82130D
:100BD800A26A5208013A43EA0243E26A43EA02631C
:100BE800284A5360284B01221A6600F09BFB0446F2
:100BF800244B1B6813F0007F06D100F093FB001B09
:100C08000228F5D903202FE000202DE000202BE05A
:100C1800012B2BD01B4B5B6803F48001E2699142E6
:100C280026D103F03F02216A8A4223D1616A47F63E
:100C3800C0721A40B2EB811F1ED103F44031A26A80
:100C48005208013AB1EB024F18D103F07063E26A1F
:100C5800B3EB026F14D1002006E001207047012099
:100C680002E0012000E0002002B070BD0120FBE797
:100C78000120F9E70120F7E70120F5E70120F3E774
:100C88000120F1E7003802400000474208B5264B32
:100C98009B6803F00C03042B41D0082B41D1224B55
:100CA8005A6802F03F025B6813F4800F12D01E4BA3
:100CB8005968C1F388111D480023A1FB0001FFF703
:100CC8001DFB194B5B68C3F3014301335B00B0FBA9
:100CD800F3F008BD144B5868C0F388104FEA401C65
:100CE800BCEB000C6EEB0E0E4FEA8E1343EA9C63CE
:100CF8004FEA8C11B1EB0C0163EB0E03DB0043EA06
:100D08005173C90011EB000C43F100039902002351
:100D18004FEA8C2041EA9C51FFF7F0FAD1E70348EB
:100D2800D7E70348D5E700BF0038024040787D0187
:100D38000024F400002800F09B8070B50D4604469E
:100D48004F4B1B6803F007038B4208D2CBB24C4AC7
:100D58001370136803F007038B4240F08B802368FD
:100D680013F0020F17D013F0040F04D0454A93680C
:100D780043F4E0539360236813F0080F04D0414A0A
:100D8800936843F4604393603E4A936823F0F0030A
:100D9800A1680B439360236813F0010F32D0636896
:100DA800012B21D09A1E012A25D9364A126812F041
:100DB800020F61D033498A6822F0030213438B6023
:100DC80000F0B0FA06462F4B9B6803F00C036268EC
:100DD800B3EB820F16D000F0A5FA801B41F28833DE
:100DE8009842F0D9032042E0264A126812F4003FE4
:100DF800E0D101203BE0234A126812F0007FD9D1EC
:100E0800012034E01E4B1B6803F00703AB4207D9EF
:100E1800EAB21B4B1A701B6803F00703AB422DD1D3
:100E2800236813F0040F06D0164A936823F4E0539E
:100E3800E1680B439360236813F0080F07D0114A49
:100E4800936823F46043216943EAC1039360FFF781
:100E58001DFF0C4B9B68C3F303130B4AD35CD840AC
:100E68000A4B18600A4B186800F010FA002070BD91
:100E7800012070470120FAE70120F8E70120F6E792
:100E8800003C024000380240141B00080800002003
:100E980004000020014B1868704700BF08000020BC
:100EA80008B5FFF7F7FF044B9B68C3F38223034A97
:100EB800D35CD84008BD00BF003802400C1B0008B6
:100EC80008B5FFF7E7FF044B9B68C3F34233034AB7
:100ED800D35CD84008BD00BF003802400C1B000896
:100EE80000230F2B00F2E98070B582B065E08568B9
:100EF8004FEA430E032404FA0EF425EA0405CC68ED
:100F080004FA0EF42C438460446824EA02044A6814
:100F1800C2F300129A40224342605CE0DC080834C5
:100F280050F8242003F00705AD004FF00F0E0EFA1D
:100F380005FE22EA0E0E0A69AA4042EA0E0240F8AD
:100F480024205CE0072200E0002202FA0EF22A4385
:100F580002345A4D45F82420594A94686FEA0C0225
:100F680024EA0C054E6816F4801F01D04CEA0405EB
:100F7800534CA560E46802EA04054E6816F4001FA5
:100F880001D04CEA04054E4CE560646802EA0405A9
:100F98004E6816F4003F01D04CEA0405484C6560E1
:100FA800246822404D6815F4803F01D04CEA0402C1
:100FB800434C226001330F2B7DD801229A400C68E4
:100FC80004EA020C32EA0404F4D14C6804F0030485
:100FD800013C012C8BD94A6802F00302032A09D08C
:100FE800C4685D000322AA4024EA02048A68AA4071
:100FF8002243C2604A6802F00302022A8ED00468C3
:101008004FEA430E032202FA0EF224EA02044A6867
:1010180002F0030202FA0EF2224302604A6812F456
:10102800403FC7D000220192264A546C44F48044C1
:101038005464526C02F480420192019A9C08A51CE7
:101048001E4A52F8255003F0030E4FEA8E0E0F2267
:1010580002FA0EF225EA02051B4A90423FF474AFE9
:1010680002F5806290421AD002F58062904218D050
:1010780002F58062904216D002F58062904214D048
:1010880002F58062904212D002F58062904210D040
:1010980002F5806290423FF455AF082255E70122DD
:1010A80053E7022251E703224FE704224DE70522C6
:1010B8004BE7062249E702B070BD7047003801408F
:1010C800003C014000380240000002400AB1816142
:1010D800704709048161704770B50446866D00F059
:1010E80021F994F83530DBB2022B06D080236365F2
:1010F800002384F83430012070BD05462268136847
:1011080023F0160313602268536923F080035361A8
:10111800236CE3B12268136823F008031360226884
:10112800136823F00103136023681B6813F0010F91
:1011380011D000F0F7F8431B052BF5D92023636580
:10114800032084F83500002384F83430D4E7A36CF6
:10115800002BDFD1E3E7E26D3F239340B360012327
:1011680084F83530002084F83400C5E790F835302D
:10117800DBB2022B03D0802343650120704705238F
:1011880080F835300268136823F0010313600020EB
:1011980070470000002807DB00F01F024009012308
:1011A8009340024A42F82030704700BF00E100E057
:1011B800002808DB0901C9B200F1604000F5614070
:1011C80080F80013704700F00F000901C9B2014B05
:1011D8001954704714ED00E000B500F00700C0F1A5
:1011E800070CBCF1040F28BF4FF0040C031D062B9D
:1011F8000FD9C31E4FF0FF3E0EFA0CF021EA000192
:1012080099400EFA03FE22EA0E0241EA02005DF856
:1012180004FB0023EEE70000074AD36823F4E063E9
:101228001B041B0C000200F4E060034343F0BF639F
:1012380043F40033D360704700ED00E010B5044676
:10124800054BD868C0F30220FFF7C6FF01462046C9
:10125800FFF7AEFF10BD00BF00ED00E008B5FFF7D7
:1012680099FF08BD0138B0F1807F0BD24FF0E02321
:101278005861054AF02182F823100020986107225E
:101288001A6170470120704700ED00E010B5044670
:101298000E4B1A784FF47A73B3FBF2F30C4A1068CA
:1012A800B0FBF3F0FFF7DEFF68B90F2C01D901207E
:1012B8000AE0002221464FF0FF30FFF7BFFF054B41
:1012C8001C60002000E0012010BD00BF00000020CD
:1012D800080000200400002008B50B4B1A6842F4EF
:1012E80000721A601A6842F480621A601A6842F43E
:1012F80080721A600320FFF78FFF0F20FFF7C6FFE9
:10130800FFF7ACFA002008BD003C0240034A116810
:10131800034B1B780B441360704700BF700000201C
:1013280000000020014B1868704700BF70000020C3
:1013380038B50446FFF7F6FF0546B4F1FF3F02D083
:10134800044B1B781C44FFF7EDFF401BA042FAD367
:1013580038BD00BF00000020026802F10C0353E80A
:10136800003F23F490730C3242E800310029F3D196
:10137800026802F1140353E8003F23F0010314321A
:1013880042E800310029F3D1036B012B05D020235B
:1013980080F84230002303637047026802F10C03AF
:1013A80053E8003F23F010030C3242E800310029D3
:1013B800F3D1ECE790F84130DBB2212B01D00220C9
:1013C80070478368B3F5805F17D0036A5A1C0262BE
:1013D8001A7803685A60C38C9BB2013B9BB2C384E2
:1013E8004BB90268D36823F08003D3600268D368DE
:1013F80043F04003D360002070470369002BE4D119
:10140800036A1B880268C3F308035360036A023344
:101418000362E0E710B504460268136923F44053F9
:10142800C1680B431361836802691A4343691A430D
:10143800C3691A430168CB6823F4164323F00C03ED
:101448001343CB600268536923F4407381690B43EB
:1014580053610368314A934206D002F58062934291
:1014680002D0FFF71DFD01E0FFF72AFDE369B3F5A0
:10147800004F29D00021031849411B1841F10001F0
:10148800C90041EA5371DB00181863684FEA830208
:101498004FEA937341F10001FEF730FF204AA2FBA7
:1014A80000314909642303FB11031B013233A2FBFA
:1014B80003235B0903F0F00202EB011203F00F03B0
:1014C800216813448B6010BD0023021843EB03010D
:1014D800121841F10001C90041EA5271D2001018F6
:1014E80041F10001626892185B41FEF707FF0C4A60
:1014F800A2FB00314909642303FB1103DB003233EB
:10150800A2FB03235B095A0002F4F87202EB0112F2
:1015180003F00703216813448B60D4E700100140EF
:101528001F85EB512DE9F04383B005460E4617465B
:101538009946DDF828802B681C6836EA04040CBF3D
:1015480001240024BC4228D1B8F1FF3FF3D0FFF7B3
:10155800E9FEA0EB0900404523D8B8F1000F22D0DE
:101568002B68DA6812F0040FE5D0802EE3D0402E05
:10157800E1D01A6812F0080FDDD0002401941A682F
:1015880001925B680193019B2846FFF7E5FE08235B
:101598006B6485F84040012000E0002003B0BDE8FE
:1015A800F0830320FAE70320F8E760B310B5044698
:1015B80090F8413013B3242384F841302268D3686B
:1015C80023F40053D3602046FFF724FF22681369F1
:1015D80023F4904313612268536923F02A0353616B
:1015E8002268D36843F40053D3600020606420234A
:1015F80084F8413084F84230606310BD80F8403090
:10160800FFF7DAF8D7E7012070472DE9F04182B0FB
:101618001E4690F84130DBB2202B56D104460D46C9
:101628009046002955D00AB901204FE000234364B1
:10163800212380F84130FFF775FE0746A4F824807F
:10164800A4F82680A368B3F5805F02D04FF00008A5
:1016580014E023692BB34FF000080FE0202384F82F
:101668004130032032E038F8023B2268C3F3080314
:101678005360E28C92B2013A92B2E284E38C9BB25C
:1016880093B100963B46002280212046FFF74AFF8F
:101698000028E3D1002DE6D015F8012B23685A6005
:1016A800E7E7A8460025E9E700963B4600224021E7
:1016B8002046FFF737FF18B9202384F8413005E0AA
:1016C800202384F84130032000E0022002B0BDE866
:1016D800F0810120FAE7704708B50168CA6822F06E
:1016E8004002CA60202280F84120FFF7F4FF002062
:1016F80008BD7047704708B5806B0023C385C38455
:10170800FFF7F8FF08BD704790F84230DBB2222B94
:1017180069D18368B3F5805F4FD0826AB3F5805F83
:1017280004D0002B56D10369002B53D103685B68A2
:101738001370836A01338362C38D9BB2013B9BB2F2
:10174800C385002B51D100B583B00268D36823F05C
:101758002003D3600268D36823F48073D3600268DF
:10176800536923F001035361202380F8423000239A
:101778004363036B012B33D100230363026802F137
:101788000C0353E8003F23F010030C3242E8003109
:101798000029F3D103681A6812F0100F06D000224E
:1017A80001921A6801925B680193019B818DFFF792
:1017B800AAFF002003B05DF804FB0269002AACD13F
:1017C800826A03685B68C3F308031380836A023381
:1017D8008362B1E703685B6803F07F031370A8E7CF
:1017E800FFF787FFE5E702207047002070470000F9
:1017F80010B582B0044602681368D068516913F0C6
:101808000F0F09D113F0200F0CD010F0200F09D0C2
:101818002046FFF779FF16E011F0010115D110F409
:10182800907F12D1216B012979D013F0800F03D05A
:1018380010F0800F40F0148113F0400F03D010F027
:10184800400F40F0118102B010BD13F0010F06D017
:1018580010F4807F03D0626C42F00102626413F0DE
:10186800040F04D019B1626C42F00202626413F0F2
:10187800020F04D019B1626C42F00402626413F0E2
:10188800080F07D010F0200F00D119B1626C42F098
:1018980008026264626C002AD5D013F0200F02D0CF
:1018A80010F0200F29D123685B6903F04003626CB4
:1018B80012F0080F00D163B32046FFF74DFD2368EF
:1018C8005B6913F0400F20D0226802F1140353E83B
:1018D800003F23F04003143242E800310029F3D1DD
:1018E800E36B73B1624A1A65E06BFFF73FFC0028AF
:1018F800A9D0E06B036D9847A5E72046FFF704FFE2
:10190800D1E72046FFF7F6FE9DE72046FFF7F2FEF7
:1019180099E72046FFF7EEFE0023636493E713F090
:10192800100F82D010F0100F3FF47FAF0023019307
:101938001368019353680193019B536913F0400F97
:1019480052D0E26B13685B689BB2002B3FF47BAF0D
:10195800A18D99427FF677AFE385D369B3F5807F90
:1019680037D0226802F10C0353E8003F23F4807358
:101978000C3242E800310029F3D1226802F1140345
:1019880053E8003F23F00103143242E800310029F4
:10199800F3D1226802F1140353E8003F23F0400317
:1019A800143242E800310029F3D1202384F8423070
:1019B80000232363226802F10C0353E8003F23F05D
:1019C80010030C3242E800310029F3D1E06BFFF735
:1019D80083FB02236363A18DE38D9BB2C91A89B28D
:1019E8002046FFF790FE2EE7A18DE38D9BB2C91A22
:1019F80089B2E38D9BB2002B3FF425AF00293FF459
:101A080022AF226802F10C0353E8003F23F49073DD
:101A18000C3242E800300028F3D1226802F11403A6
:101A280053E8003F23F00103143242E80030002855
:101A3800F3D1202384F8423000232363226802F183
:101A48000C0353E8003F23F010030C3242E8003047
:101A58000028F3D1022363632046FFF754FEF2E621
:101A68002046FFF7A7FCEEE62046FFF735FEEAE63C
:101A7800FF160008034AD2F8883043F47003C2F80E
:101A88008830704700ED00E0DFF834D0FFF7F2FF50
:101A98000C480D490D4A002302E0D458C4500433C1
:101AA800C4188C42F9D30A4A0A4C002301E0136097
:101AB8000432A242FBD3FEF7A7FBFEF7E5FD704711
:101AC80000000220000000200C000020341B000849
:101AD8000C00002074000020FEE70000F8B500BFED
:101AE800F8BC08BC9E467047F8B500BFF8BC08BCF7
:041AF8009E4670474F
:101AFC0048656C6C6F2C20576F726C64210D0A005A
:101B0C0000000000010203040000000000000000BF
:081B1C00010203040607080999
:081B240010E8FF7F0100000042
:041B2C00F1010008BB
:041B3000C9010008DF
:0C1B340001000000100000000024F4007C
:0400000508001A9144
:00000001FF
